:020000040800F2
:10000000A0080020A9020008050300080503000855
:1000100005030008050300080503000800000000B0
:1000200000000000000000000000000005030008C0
:100030000503000800000000050300080503000890
:100040000503000805030008050300080503000870
:100050000503000805030008050300080503000860
:100060000503000805030008050300080503000850
:100070000503000805030008050300080503000840
:100080000503000805030008050300080503000830
:100090000503000805030008050300080503000820
:1000A0000503000805030008050300080503000810
:1000B0000503000805030008050300080503000800
:1000C00005030008050300080503000805030008F0
:1000D00005030008050300080503000805030008E0
:1000E00005030008050300080503000805030008D0
:1000F00005030008050300080503000805030008C0
:1001000005030008050300080503000805030008AF
:10011000050300080503000805030008050300089F
:10012000050300080503000805030008050300088F
:100130005FF808F180B500AF154A154B1B6843F016
:10014000010313601249124B5A68124B13404B6063
:100150000F4A0F4B1B6823F0847323F48033136022
:100160000B4A0B4B1B6823F480231360084A084B8F
:100170005B6823F4FE035360054B4FF41F029A6043
:1001800000F00CF8044B4FF000629A6080BD00BF95
:10019000001002400000FFF800ED00E080B500AF65
:1001A00000F002F880BD00BF80B483B000AF002330
:1001B0007B6000233B603A4A394B1B6843F4803331
:1001C0001360374B1B6803F400333B607B680133DB
:1001D0007B603B68002B03D17B68B3F5A06FF0D147
:1001E0002F4B1B6803F40033002B02D001233B602C
:1001F00001E000233B603B68012B4BD1294A294B8E
:100200001B6843F010031360264A264B1B6823F03B
:1002100003031360234A234B1B6843F0020313605C
:100220001F4A1F4B5B6853601D4A1D4B5B68536040
:100230001B4A1B4B5B6843F480635360184A184B9E
:100240005B6823F47C135360154A154B5B6843F4D9
:10025000E8135360124A124B1B6843F0807313601B
:1002600000BF0F4B1B6803F00073002BF9D00C4A42
:100270000B4B5B6823F003035360094A084B5B6830
:1002800043F00203536000BF054B5B6803F00C03AF
:10029000082BF9D10C37BD465DF8047B704700BFD1
:1002A000001002400020024080B582B000AF104B29
:1002B0007B60104B3B6007E03B681A1D3A607A6830
:1002C000111D796012681A603B680B4A9342F3D3A0
:1002D0000A480B494FF000028842B8BF40F8042B8F
:1002E000FADBFFF727FF00F0EFF80837BD4680BDC7
:1002F000582C00080000002040040020400400208A
:100300009C04002080B400AFFEE700BF80B489B039
:1003100000AF786039600023FB6100233B6100235C
:10032000BB610023FB6000237B610023BB603B6853
:10033000DB7803F00F03FB613B68DB7803F010030D
:10034000002B05D03B689B781A46FB691343FB6181
:100350003B681B88DBB2002B44D07B681B687B6149
:100360000023BB6138E0BB69012202FA03F3FB60A2
:100370003B681B881A46FB6813403B613A69FB687F
:100380009A4226D1BB699B00FB60FB680F2202FAF0
:1003900003F3BB60BB68DB437A6913407B61FB6896
:1003A000FA6902FA03F37A6913437B613B68DB78ED
:1003B000282B05D1BB6901229A407B685A6108E06D
:1003C0003B68DB78482B04D1BB6901229A407B68EB
:1003D0001A61BB690133BB61BB69072BC3D97B6859
:1003E0007A691A603B681B88FF2B4AD97B685B6877
:1003F0007B610023BB613EE0BB6908331A460123E1
:100400009340FB603B681B881A46FB6813403B61C6
:100410003A69FB689A422BD1BB699B00FB60FB6881
:100420000F2202FA03F3BB60BB68DB437A69134017
:100430007B61FB68FA6902FA03F37A6913437B6113
:100440003B68DB78282B07D1BB6908331A460123A8
:1004500003FA02F27B685A613B68DB78482B07D1CC
:10046000BB6908331A46012303FA02F27B681A615A
:10047000BB690133BB61BB69072BBDD97B687A6956
:100480005A602437BD465DF8047B704780B483B062
:1004900000AF78600B467B807A887B681A610C37E6
:1004A000BD465DF8047B704780B483B000AF7860D0
:1004B0000B467B807A887B685A610C37BD465DF8B5
:1004C000047B70470000000090B5A5B002AFBC4BA4
:1004D000C7F880300023C7F8843000F0A3F900F09B
:1004E000F1F944F27C00012100F0DAFFC023BB8067
:1004F0001023FB710323BB713B1DB2481946FFF764
:1005000005FF4FF40153BB803B1DAF481946FFF771
:10051000FDFE00F087F900F0FFF900F0D3F900F0DC
:1005200003FAAA4800F04CFDA94801F02BFBA94BA7
:10053000A94A1A60A94AA74B5A60A64B00229A60A2
:10054000A44B0122DA60A34B00221A61A14B0022C6
:100550005A61A04B4FF480729A619E4B4FF48062B7
:10056000DA619C4B20221A629A4B4FF400525A6275
:10057000984B00229A629648964901F0BFFB944836
:10058000012101F0F9FB964B00221A60944B0122E5
:100590001A71934B01225A71914B4FF460229A6069
:1005A0008F4B0022DA608E4B01221A748D488C49E1
:1005B00000F0CEFF8B48012101F038F88948012175
:1005C00001F018F8874801F04DF800BF854801F0A8
:1005D00059F80346002BF9D1824801F06BF800BFAF
:1005E000804801F077F80346002BF9D17D480121BE
:1005F00001F088F87C4B1B685A1C7B490A607B4AD7
:10060000934205D9784B00221A60794B01221A7067
:10061000774B1B78002B00F00381754B00221A707A
:1006200070480B210122052301F088F86D4801F084
:100630004FF903461A466F4B1A606E4B1B681846FB
:1006400002F002F90346184601F066FD02460B4629
:100650001046194656A3D3E9002301F0B1FD024626
:100660000B461046194654A3D3E9002301F0D2FEED
:1006700002460B461046194601F0DCFF02465E4B6F
:100680001A605D4B1B68184602F082FA0346FB674E
:10069000594B1C68F86F02F0D7F8034620461946FC
:1006A00002F01CF80346BB67B86F544902F020F90A
:1006B0000346184601F030FD02460B461046194627
:1006C00001F08CFB02460B461046194601F08AFFEA
:1006D00003467B67B86F494902F00AF903461C4696
:1006E000786F02F0B1F803462046194601F0F6FF94
:1006F00003463B67386F414902F0FAF80346184653
:1007000001F00AFD02460B461046194601F066FB51
:1007100002460B461046194601F064FF0346FB668D
:1007200007F10802FB6E009310463549FA6F7B6FA4
:1007300000F030FC07F108033248194600F016FCBF
:10074000D7F88430002B03D11E484021FFF79EFECE
:10075000D7F88430012B07D11A488021FFF796FE85
:1007600018484021FFF7A0FED7F88430022B08D1AB
:1007700015484FF40051FFF789FE12488021FFF71A
:1007800093FED7F88430032B08D10F484021FFF7A0
:100790007DFE0D484FF40051FFF786FED7F88430F8
:1007A000042B31D108484021FFF77EFE2CE000BF2A
:1007B0006666666666660A400000000000FEAF409E
:1007C0008FC2F53C0010014000140140DC2B0008F2
:1007D000080002406C0400204C2401406804002002
:1007E0005404002000240140400400209FBB0D0061
:1007F000490400204C0400209804002000401C46BE
:10080000142C0008302C0008D7F88430042B02DDAB
:100810000023C7F88430D7F884300133C7F8843018
:10082000E8E600BF80B500AF00F01CFC4FF480305C
:1008300000F046FC00F072FC03461A46204B1A708A
:100840001F4B1B78012B2CD1002000F0E9FC00206D
:1008500000F01EFD4FF4806000F0FEFC4FF480407D
:1008600000F032FD022001F059F9102001F072F978
:100870004FF480304FF4E01100F078FC012000F0DC
:1008800093FC00BF392000F029FE0346002BF9D06D
:10089000022000F099FC00BF00F0B2FC0346082BD8
:1008A000FAD10120012100F0DDFD4FF40470012197
:1008B00000F0F6FD44F20400012100F0F1FD80BDDE
:1008C0004804002080B582B000AF0223BB80002323
:1008D000FB713B1D0E481946FFF718FD4FF40073DE
:1008E000BB801823FB710323BB713B1D09481946CC
:1008F000FFF70CFD4FF48063BB800423FB713B1DAD
:1009000004481946FFF702FD0837BD4680BD00BF09
:10091000001001400008014080B500AF4FF00060BA
:10092000002101F045FA80BD80B586B000AF0023FC
:100930003B8000237B804FF40073BB800023FB804F
:100940003B460F48194601F08BF84FF4E133BB608A
:100950000023BB810023FB8100233B820023BB8259
:100960000C237B8207F108030548194600F0BEFFFF
:100970000348012101F0A0F81837BD4680BD00BF33
:100980000038014080B483B000AF78600B46FB7044
:100990007B68FA781A70012318460C37BD465DF85B
:1009A000047B704780B485B000AF78603960002365
:1009B000FB600AE07B685A1C7A603A68511C396017
:1009C00012781A70FB680133FB603B681B78002BC0
:1009D000F0D1FB6818461437BD465DF8047B7047BC
:1009E00080B586B000AFF8607A603B600B46FB7262
:1009F00000237B617B68013B7B603B68092B10D93E
:100A00003B681E4AA2FB0323DB08FA7AF86811460A
:100A10007A68FFF7E5FF78617B69FA681344FB6049
:100A200011E00DE0FB7AF8681946FFF7ABFFFB68B1
:100A30000133FB607B6901337B617B68013B7B6039
:100A40007B68002BEEDC39680C4BA3FB0123DA0832
:100A500013469B0013445B00CA1AD3B23033DBB297
:100A6000F8681946FFF78EFF02467B6913447B61E5
:100A70007B6918461837BD4680BD00BFCDCCCCCCB5
:100A800090B587B000AFF8607A603B600B46FB72B0
:100A900000237B613B68002B03DA3B685B423B61D0
:100AA00001E03B683B617B68013B7B603B69092B54
:100AB00025D93B68002B0FDA3B69314AA2FB03239F
:100AC000DB085B421C46FB7AF86819467A682346C5
:100AD000FFF7D6FF78610DE03B69294AA2FB0323AB
:100AE000DB081C46FB7AF86819467A682346FFF74C
:100AF000C7FF78617B69FA681344FB6025E03B68B7
:100B0000002B02DA7B68013B7B600DE0FB7AF86822
:100B10001946FFF737FFFB680133FB607B69013340
:100B20007B617B68013B7B607B68002BEEDC3B6874
:100B3000002B0ADAF8682D21FFF724FF02467B69B3
:100B400013447B61FB680133FB6039690C4BA3FBE9
:100B50000123DA0813469B0013445B00CA1AD3B280
:100B60003033DBB2F8681946FFF70CFF02467B69A9
:100B700013447B617B6918461C37BD4690BD00BF9E
:100B8000CDCCCCCC90B589B002AFF8607A601A4673
:100B90000B46FB721346BB7200237B617B68013BF3
:100BA0007B60BB6A1B09002B13D0BB6A1B09FA7A56
:100BB000BC7A0093F86811467A682346FFF7E2FF93
:100BC00002467B6913447B617B69FA681344FB60CE
:100BD00011E00DE0FB7AF8681946FFF7D3FEFB68D9
:100BE0000133FB607B6901337B617B68013B7B6088
:100BF0007B68002BEEDCBB6A03F00F03092B0BD8DC
:100C0000BB6ADBB203F00F03DBB23033DBB2F86850
:100C10001946FFF7B7FE19E0BB7A002B0BD0BB6A71
:100C2000DBB203F00F03DBB23733DBB2F8681946EF
:100C3000FFF7A8FE0AE0BB6ADBB203F00F03DBB2EA
:100C40005733DBB2F8681946FFF79CFE7B69013326
:100C50007B617B6918461C37BD4690BD90B58BB053
:100C600002AFF860B9607A603B600023BB6100238B
:100C70007B61FB68002B02D0FB6800221A70FCE04D
:100C80007B681B78252B0BD0FB685A1CFA607A68AE
:100C9000511C796012781A707B6901337B61ECE03A
:100CA0007B6801331B78252B0BD1FB685A1CFA603B
:100CB00025221A707B6802337B607B6901337B617C
:100CC000DBE02023FB770023BB777B6801337B606D
:100CD0007B681B78302B04D13023FB777B68013392
:100CE0007B600EE0BB7F1A46920013445B00DAB2D1
:100CF0007B681B781344DBB2303BBB777B680133E6
:100D00007B607B681B782F2B03D97B681B78392B82
:100D1000E8D9BA7F7B6913441A46BB689A4205D961
:100D2000BB68DAB27B69DBB2D31ABB777B681B780E
:100D3000583B202B00F2938001A252F823F000BF11
:100D4000170E00085F0E00085F0E00085F0E000817
:100D50005F0E00085F0E00085F0E00085F0E0008BF
:100D60005F0E00085F0E00085F0E0008490E0008C5
:100D7000C50D00085F0E00085F0E00085F0E00083A
:100D80005F0E0008C50D00085F0E00085F0E00082A
:100D90005F0E00085F0E00085F0E00085F0E00087F
:100DA0005F0E00085F0E00085F0E0008350E000899
:100DB0005F0E0008DF0D00085F0E00085F0E0008E0
:100DC000F90D0008BC7F3B681A1D3A601B68FA7F6A
:100DD000F86811462246FFF753FEB86142E0BC7F37
:100DE0003B681A1D3A601B68FA7FF8681146224674
:100DF000FFF7F6FDB86135E0BC7F3B681A1D3A602D
:100E00001B68FA7F0093F868114622460023FFF71B
:100E1000B9FEB86126E0BC7F3B681A1D3A601B68CA
:100E2000FA7F0093F868114622460123FFF7AAFED5
:100E3000B86117E03B681A1D3A601B68F8681946EC
:100E4000FFF7B0FDB8610DE03B681A1D3A601B6802
:100E5000DBB2F8681946FFF795FDB86102E04FF084
:100E6000FF3325E07B6801337B60BB69FA6813447C
:100E7000FB607A69BB6913447B617B681B78002B3C
:100E800004D07A69BB689A42FFF4FAAE7A69BB680B
:100E90009A4203D2FB6800221A7008E0FB68013B0B
:100EA000FB60FB6800221A707B69013B7B617B69F8
:100EB00018462437BD4690BD80B584B000AFF860B9
:100EC000B9607A60F8686421BA687B68FFF7C6FE8B
:100ED000034618461037BD4680BD00BFB0B5A6B06A
:100EE00000AFF860B9607A60144B07F110041D463A
:100EF0000FCD0FC40FCD0FC42B68236007F134034F
:100F00001846B9687A68FFF7D7FF0346632B09DDF7
:100F10000B4B1B68DB6807F110021046194600F006
:100F20007DF8FEE707F134031846F96800F076F81B
:100F3000034618469837BD46B0BD00BF342C0008A4
:100F40002804002080B582B000AF78603960064B7D
:100F50001B689B68184679683A68FFF7BFFF03462D
:100F600018460837BD4680BD280400200FB480B560
:100F700082B000AF07F114033B6038693968FFF7AE
:100F8000E1FF78607B6818460837BD46BDE88040C1
:100F900004B070470EB480B585B000AF786007F13B
:100FA0002003BB607868F969BA68FFF785FFF860CD
:100FB000FB6818461437BD46BDE8804003B0704753
:100FC00080B582B000AF7860054B1B689B6878687D
:100FD000194600F023F8034618460837BD4680BD81
:100FE0002804002080B582B000AF786039607B684B
:100FF000DBB29BB20848194600F07EFD00BF064BED
:101000001B889BB203F08003002BF8D07B68184646
:101010000837BD4680BD00BF0038014080B584B0B0
:1010200000AF786039600023FB6012E07B681B78BA
:1010300018463968FFF7D6FF0346B3F1FF3F02D1E8
:101040004FF0FF330AE0FB680133FB607B6801333C
:101050007B607B681B78002BE8D1FB681846103753
:10106000BD4680BD80B400AF134A134B1B6843F0EC
:10107000010313601049104B5A68104B13404B602A
:101080000D4A0D4B1B6823F0847323F480331360E7
:10109000094A094B1B6823F480231360064A064B58
:1010A0005B6823F4FE035360034B4FF41F029A6006
:1010B000BD465DF8047B7047001002400000FFF859
:1010C00080B483B000AF7860134A134B1B6823F4DD
:1010D00080331360104A104B1B6823F48023136085
:1010E0007B68B3F5803F03D0B3F5802F07D00DE0C8
:1010F000094A094B1B6843F48033136006E0064A33
:10110000054B1B6843F4A023136000BF0C37BD469A
:101110005DF8047B704700BF0010024080B582B0CC
:1011200000AF00233B600023FB710023BB71312023
:1011300000F0D4F90346BB713B6801333B603B6868
:10114000B3F5A06F02D0BB79002BF0D0312000F0B6
:10115000C5F90346002B02D00123FB7101E00023F7
:10116000FB71FB7918460837BD4680BD80B485B059
:1011700000AF786039600023FB600A4B5B68FB605E
:10118000FB6823F47C13FB607A683B681343FA68BE
:101190001343FB60034AFB6853601437BD465DF898
:1011A000047B70470010024080B483B000AF034658
:1011B000FB71044AFB7913600C37BD465DF8047B74
:1011C000704700BF6000424280B485B000AF7860D5
:1011D0000023FB60094B5B68FB60FB6823F00303A3
:1011E000FB60FA687B681343FB60044AFB6853604A
:1011F0001437BD465DF8047B704700BF0010024005
:1012000080B400AF054B5B68DBB203F00C03DBB2CC
:101210001846BD465DF8047B704700BF00100240D1
:1012200080B485B000AF78600023FB60094B5B6839
:10123000FB60FB6823F0F003FB60FA687B681343F4
:10124000FB60044AFB6853601437BD465DF8047BBD
:10125000704700BF0010024080B485B000AF7860D6
:101260000023FB60094B5B68FB60FB6823F4E063D1
:10127000FB60FA687B681343FB60044AFB685360B9
:101280001437BD465DF8047B704700BF0010024074
:1012900080B485B000AF78600023FB60094B5B68C9
:1012A000FB60FB6823F46053FB607B68DB00FA683B
:1012B0001343FB60034AFB6853601437BD465DF877
:1012C000047B70470010024080B485B000AF7860A6
:1012D0000023FB60094B5B68FB60FB6823F4404321
:1012E000FB60FA687B681343FB60044AFB68536049
:1012F0001437BD465DF8047B704700BF0010024004
:1013000080B487B000AF786000237B6100233B612D
:101310000023FB600023BB604D4B5B6803F00C03B4
:101320007B617B69042B07D0082B09D0002B34D1BB
:101330007B68484A1A6034E07B68464A1A6030E0AD
:10134000434B5B6803F470133B61414B5B6803F4F0
:101350008033FB603B699B0C02333B61FB68002BD5
:1013600006D13B693C4A02FB03F27B681A6013E03A
:10137000374B5B6803F40033002B06D03B69364AD9
:1013800002FB03F27B681A6006E03B69314A02FB0C
:1013900003F27B681A6004E003E07B682D4A1A6060
:1013A00000BF2B4B5B6803F0F0037B617B691B097B
:1013B0007B612A4A7B6913441B78DBB2BB607B6884
:1013C0001A68BB68DA407B685A60214B5B6803F49B
:1013D000E0637B617B691B0A7B61204A7B69134464
:1013E0001B78DBB2BB607B685A68BB68DA407B68FD
:1013F0009A60174B5B6803F460537B617B69DB0A7F
:101400007B61164A7B6913441B78DBB2BB607B6847
:101410005A68BB68DA407B68DA600D4B5B6803F49E
:1014200040437B617B699B0B7B610D4A7B69134465
:101430001B78DBB2BB607B68DA68BB68B2FBF3F297
:101440007B681A611C37BD465DF8047B704700BF9E
:101450000010024000127A0000093D002C04002018
:101460003C04002080B483B000AF78600B46FB7072
:10147000FB78002B06D00949084B5A697B68134357
:101480004B6106E00549054B5A697B68DB43134015
:101490004B610C37BD465DF8047B7047001002407D
:1014A00080B483B000AF78600B46FB70FB78002BF4
:1014B00006D00949084B9A697B6813438B6106E0A3
:1014C0000549054B9A697B68DB4313408B610C37F8
:1014D000BD465DF8047B70470010024080B487B0C1
:1014E00000AF0346FB710023FB6000237B610023F8
:1014F000FB74FB795B09DBB2FB60FB68012B03D15A
:10150000124B1B687B6109E0FB68022B03D10F4B78
:101510001B6A7B6102E00D4B5B6A7B61FB7903F028
:101520001F03FB60FB687A6922FA03F303F00103EF
:10153000002B02D00123FB7401E00023FB74FB7C31
:1015400018461C37BD465DF8047B7047001002400A
:1015500080B485B000AF786039600023FB60002361
:10156000FB727B685B68FB60FB6823F4702323F4E9
:101570008073FB603B681A683B681B791B0213434E
:10158000FA681343FB607B68FA685A607B689B6863
:10159000FB60FA68164B1340FB603B68DA683B68F7
:1015A0009B681A433B685B795B001343FA681343FB
:1015B000FB607B68FA689A607B68DB6AFB60FB68AB
:1015C00023F47003FB603B681B7C013BDAB2FB7ABF
:1015D0001343FB72FB7A1B05FA681343FB607B68BD
:1015E000FA68DA621437BD465DF8047B704700BFC5
:1015F000FDF7F1FF80B483B000AF78600B46FB705D
:10160000FB78002B06D07B689B6843F001027B6867
:101610009A6005E07B689B6823F001027B689A6012
:101620000C37BD465DF8047B704700BF80B483B0C3
:1016300000AF78600B46FB70FB78002B06D07B6810
:101640009B6843F480727B689A6005E07B689B68C6
:1016500023F480727B689A600C37BD465DF8047B8A
:10166000704700BF80B483B000AF78607B689B6830
:1016700043F008027B689A600C37BD465DF8047B36
:10168000704700BF80B485B000AF78600023FB7363
:101690007B689B6803F00803002B02D00123FB73D7
:1016A00001E00023FB73FB7B18461437BD465DF851
:1016B000047B704780B483B000AF78607B689B6820
:1016C00043F004027B689A600C37BD465DF8047BEA
:1016D000704700BF80B485B000AF78600023FB7313
:1016E0007B689B6803F00403002B02D00123FB738B
:1016F00001E00023FB73FB7B18461437BD465DF801
:10170000047B704780B483B000AF78600B46FB70F9
:10171000FB78002B06D07B689B6843F4A0027B68B3
:101720009A6005E07B689B6823F4A0027B689A605E
:101730000C37BD465DF8047B704700BF80B485B0B0
:1017400000AF7860084611461A460346FB700B4608
:10175000BB7013467B700023FB600023BB60FB78EB
:10176000092B23D97B68DB68FB60FB78A3F10A02B5
:1017700013465B001344072202FA03F3BB60BB6805
:10178000DB43FA681340FB607978FB78A3F10A0227
:1017900013465B00134401FA03F3BB60FA68BB68AD
:1017A0001343FB607B68FA68DA601EE07B681B69A4
:1017B000FB60FA7813465B001344072202FA03F336
:1017C000BB60BB68DB43FA681340FB607978FA784A
:1017D00013465B00134401FA03F3BB60FA68BB686D
:1017E0001343FB607B68FA681A61BB78062B21D82B
:1017F0007B685B6BFB60BB785A1E13469B001344EF
:101800001F2202FA03F3BB60BB68DB43FA68134094
:10181000FB60F978BB785A1E13469B00134401FA0B
:1018200003F3BB60FA68BB681343FB607B68FA682C
:101830005A6347E0BB780C2B21D87B681B6BFB609D
:10184000BB78DA1F13469B0013441F2202FA03F3EE
:10185000BB60BB68DB43FA681340FB60F978BB7878
:10186000DA1F13469B00134401FA03F3BB60FA68C6
:10187000BB681343FB607B68FA681A6322E07B68ED
:10188000DB6AFB60BB78A3F10D0213469B00134497
:101890001F2202FA03F3BB60BB68DB43FA68134004
:1018A000FB60F978BB78A3F10D0213469B0013444B
:1018B00001FA03F3BB60FA68BB681343FB607B6803
:1018C000FA68DA621437BD465DF8047B704700BFE2
:1018D00080B483B000AF78607B68DB6C9BB2184645
:1018E0000C37BD465DF8047B704700BF80B58CB0F7
:1018F00000AF786039600023FB620023BB620023E5
:101900007B6200233B620023FB617B68FB617B6899
:101910001B8A9BB2FB62FA6A4CF6FF731340FB62B0
:101920003B68DB881A46FB6A1343FB62FB6A9AB288
:101930007B681A827B689B899BB2FB62FA6A4EF6CF
:10194000F3131340FB623B689A883B681B8913437F
:101950009AB23B685B8913439BB21A46FB6A1343F6
:10196000FB62FB6A9AB27B689A817B689B8A9BB216
:10197000FB62FA6A4FF6FF431340FB623B689B89A8
:101980001A46FB6A1343FB62FB6A9AB27B689A822F
:1019900007F108031846FFF7B3FCFB692E4A934290
:1019A00002D17B69BB6201E03B69BB627B689B89BA
:1019B0009BB29BB21BB2002B0CDABA6A13469B0097
:1019C00013449A001A443B681B685B00B2FBF3F3B4
:1019D0007B620BE0BA6A13469B0013449A001A44D8
:1019E0003B681B689B00B2FBF3F37B627B6A1B4A7C
:1019F000A2FB03235B091B01FB62FB6A1B09642238
:101A000002FB03F37A6AD31A3B627B689B899BB221
:101A10009BB21BB2002B0CDA3B6ADB0032330F4A5D
:101A2000A2FB03235B0903F00703FA6A1343FB627B
:101A30000BE03B6A1B013233084AA2FB03235B091C
:101A400003F00F03FA6A1343FB62FB6A9AB27B68E6
:101A50001A813037BD4680BD003801401F85EB51EB
:101A600080B485B000AF786039600023FB607B688C
:101A70001B8A9BB2FB60FA684FF2FF031340FB60C6
:101A80003B681A883B685B8813439AB23B689B8823
:101A900013439AB23B68DB8813439BB21A46FB6838
:101AA0001343FB60FB689AB27B681A821437BD4609
:101AB0005DF8047B704700BF80B483B000AF7860EE
:101AC0000B46FB70FB78002B08D07B689B899BB290
:101AD00043F400539AB27B689A8107E07B689B8944
:101AE0009BB223F400539AB27B689A810C37BD46AF
:101AF0005DF8047B704700BF80B483B000AF7860AE
:101B00000B467B807B88C3F308039AB27B689A807C
:101B10000C37BD465DF8047B704700BF80B485B0CC
:101B200000AF78600023FB60094B1B68FB60FB681B
:101B300003F03803FB60FA687B681343FB60044AD8
:101B4000FB6813601437BD465DF8047B704700BF27
:101B50000020024080B483B000AF7860084A084B90
:101B60001B6823F0100313600549054B1A687B6856
:101B700013430B600C37BD465DF8047B704700BF14
:101B80000020024080B483B000AF78607B681A68A0
:101B90004FF6FE7313407A6813607B6800221A6068
:101BA0007B6800225A607B6800229A607B68002272
:101BB000DA607B68434A934206D1434A424B5B68F2
:101BC00043F00F03536077E07B68404A934206D1AD
:101BD0003D4A3D4B5B6843F0F00353606CE07B682B
:101BE0003B4A934206D1384A374B5B6843F47063F3
:101BF000536061E07B68374A934206D1324A324BE8
:101C00005B6843F47043536056E07B68324A93420A
:101C100006D12D4A2C4B5B6843F4702353604BE094
:101C20007B682E4A934206D1274A274B5B6843F4D0
:101C30007003536040E07B68294A934206D1224AF0
:101C4000214B5B6843F07063536035E07B68254A45
:101C5000934206D1244A244B5B6843F00F03536040
:101C60002AE07B68214A934206D11F4A1E4B5B68DB
:101C700043F0F00353601FE07B681D4A934206D196
:101C8000194A194B5B6843F47063536014E07B6836
:101C9000184A934206D1144A134B5B6843F47043CD
:101CA000536009E07B68144A934205D10E4A0E4BFB
:101CB0005B6843F4702353600C37BD465DF8047BCA
:101CC000704700BF08000240000002401C000240B4
:101CD0003000024044000240580002406C000240C4
:101CE0008000024008040240000402401C0402403C
:101CF00030040240440402405804024080B485B0DD
:101D000000AF786039600023FB607B681B68FB6074
:101D1000FB6823F4FF4323F07003FB603B689A6881
:101D20003B681B6A1A433B681B691A433B685B6943
:101D30001A433B689B691A433B68DB691A433B685B
:101D40005B6A1A433B689B6A1343FA681343FB6060
:101D50007B68FA681A603B68DA687B685A603B689F
:101D60001A687B689A603B685A687B68DA60143747
:101D7000BD465DF8047B704780B483B000AF7860E7
:101D80000B46FB70FB78002B06D07B681B6843F08A
:101D900001027B681A6006E07B681A684FF6FE73E2
:101DA00013407A6813600C37BD465DF8047B7047BA
:101DB00080B483B000AF7860396007493B6823F096
:101DC000604323F07F037A6813438B600C37BD4672
:101DD0005DF8047B704700BF00ED00E0F8B5C1F38B
:101DE0000A56A6F2FF34132C0B4610DC002C01F02F
:101DF00000424FF0000022DB144B234121EA03058F
:101E000045EA02010B46024610461946F8BD332C3E
:101E1000024609DDB4F5806FF6D102460B4600F0AC
:101E20001DF802460B46EFE70B46A6F213464FF0AD
:101E3000FF31F14020EA010210461946F8BD114673
:101E400002460B4610461946F8BD00BFFFFF0F00C3
:101E500081F0004102E000BF83F0004330B54FEA5B
:101E600041044FEA430594EA050F08BF90EA020FC8
:101E70001FBF54EA000C55EA020C7FEA645C7FEA5B
:101E8000655C00F0E2804FEA5454D4EB5555B8BF7E
:101E90006D420CDD2C4480EA020281EA030382EAEF
:101EA000000083EA010180EA020281EA0303362D81
:101EB00088BF30BD11F0004F4FEA01314FF4801C54
:101EC0004CEA113102D0404261EB410113F0004F66
:101ED0004FEA03334CEA133302D0524263EB43031D
:101EE00094EA050F00F0A780A4F10104D5F1200EBB
:101EF0000DDB02FA0EFC22FA05F2801841F1000116
:101F000003FA0EF2801843FA05F359410EE0A5F1E9
:101F100020050EF1200E012A03FA0EFC28BF4CF01A
:101F2000020C43FA05F3C01851EBE37101F00045D0
:101F300007D54FF0000EDCF1000C7EEB00006EEBDD
:101F40000101B1F5801F1BD3B1F5001F0CD3490867
:101F50005FEA30004FEA3C0C04F101044FEA4452BE
:101F600012F5800F80F09A80BCF1004F08BF5FEA45
:101F7000500C50F1000041EB045141EA050130BD25
:101F80005FEA4C0C404141EB010111F4801FA4F1C8
:101F90000104E9D191F0000F04BF01460020B1FA1D
:101FA00081F308BF2033A3F10B03B3F120020CDA55
:101FB0000C3208DD02F1140CC2F10C0201FA0CF033
:101FC00021FA02F10CE002F11402D8BFC2F1200C98
:101FD00001FA02F120FA0CFCDCBF41EA0C0190404E
:101FE000E41AA2BF01EB0451294330BD6FEA040497
:101FF0001F3C1CDA0C340EDC04F11404C4F1200282
:1020000020FA04F001FA02F340EA030021FA04F393
:1020100045EA030130BDC4F10C04C4F1200220FAEA
:1020200002F001FA04F340EA0300294630BD21FA28
:1020300004F0294630BD94F0000F83F4801306BFEE
:1020400081F480110134013D4EE77FEA645C18BFE2
:102050007FEA655C29D094EA050F08BF90EA020F79
:1020600005D054EA000C04BF1946104630BD91EA71
:10207000030F1EBF0021002030BD5FEA545C05D174
:102080004000494128BF41F0004130BD14F58004B3
:102090003CBF01F5801130BD01F0004545F0FE4127
:1020A00041F470014FF0000030BD7FEA645C1ABF5C
:1020B000194610467FEA655C1CBF0B46024650EA93
:1020C000013406BF52EA033591EA030F41F40021BF
:1020D00030BD00BF90F0000F04BF0021704730B545
:1020E0004FF4806404F132044FF000054FF000011A
:1020F00050E700BF90F0000F04BF0021704730B5DB
:102100004FF4806404F1320410F0004548BF4042AF
:102110004FF000013EE700BF42004FEAE2014FEA04
:1021200031014FEA02701FBF12F07F4393F07F4FDF
:1021300081F06051704792F0000F14BF93F07F4F11
:10214000704730B54FF4607401F0004521F0004154
:1021500020E700BF50EA010208BF704730B54FF0DA
:1021600000050AE050EA010208BF704730B511F0DF
:10217000004502D5404261EB41014FF4806404F117
:1021800032045FEA915C3FF4DCAE4FF003025FEA99
:10219000DC0C18BF03325FEADC0C18BF033202EB21
:1021A000DC02C2F1200300FA03FC20FA02F001FA7B
:1021B00003FE40EA0E0021FA02F11444C1E600BF1A
:1021C00070B54FF0FF0C4CF4E06C1CEA11541DBFCD
:1021D0001CEA135594EA0C0F95EA0C0F00F0DEF898
:1021E0002C4481EA030621EA4C5123EA4C5350EA7D
:1021F000013518BF52EA033541F4801143F48013CE
:1022000038D0A0FB02CE4FF00005E1FB02E506F05E
:102210000042E0FB03E54FF00006E1FB03569CF0B3
:10222000000F18BF4EF0010EA4F1FF04B6F5007FB9
:1022300064F5407404D25FEA4E0E6D4146EB06062B
:1022400042EAC62141EA55514FEAC52040EA5E50B4
:102250004FEACE2EB4F1FD0C88BFBCF5E06F1ED85E
:10226000BEF1004F08BF5FEA500E50F1000041EB95
:10227000045170BD06F0004646EA010140EA020042
:1022800081EA0301B4EB5C04C2BFD4EB0C0541EA64
:10229000045170BD41F480114FF0000E013C00F379
:1022A000AB8014F1360FDEBF002001F0004170BD9D
:1022B000C4F10004203C35DA0C341BDC04F11404B6
:1022C000C4F1200500FA05F320FA04F001FA05F242
:1022D00040EA020001F0004221F0004110EBD3700F
:1022E00021FA04F642EB06015EEA430E08BF20EA3B
:1022F000D37070BDC4F10C04C4F1200500FA04F3DE
:1023000020FA05F001FA04F240EA020001F000416F
:1023100010EBD37041F100015EEA430E08BF20EAE2
:10232000D37070BDC4F1200500FA05F24EEA020E2A
:1023300020FA04F301FA05F243EA020321FA04F059
:1023400001F0004121FA04F220EA020000EBD37010
:102350005EEA430E08BF20EAD37070BD94F0000F10
:102360000FD101F00046400041EB010111F4801F44
:1023700008BF013CF7D041EA060195F0000F18BFF5
:10238000704703F00046520043EB030313F4801F31
:1023900008BF013DF7D043EA0603704794EA0C0FEB
:1023A0000CEA135518BF95EA0C0F0CD050EA410601
:1023B00018BF52EA4306D1D181EA030101F000417E
:1023C0004FF0000070BD50EA410606BF10461946A6
:1023D00052EA430619D094EA0C0F02D150EA0136B2
:1023E00013D195EA0C0F05D152EA03361CBF1046F3
:1023F00019460AD181EA030101F0004141F0FE4192
:1024000041F470014FF0000070BD41F0FE4141F415
:10241000780170BD70B54FF0FF0C4CF4E06C1CEA15
:1024200011541DBF1CEA135594EA0C0F95EA0C0FCA
:1024300000F0A7F8A4EB050481EA030E52EA033585
:102440004FEA013100F088804FEA03334FF08055A6
:1024500045EA131343EA12634FEA022245EA1115D3
:1024600045EA10654FEA00260EF000419D4208BF84
:10247000964244F1FD0404F5407402D25B084FEA31
:102480003202B61A65EB03055B084FEA32024FF4DD
:1024900080104FF4002CB6EB020E75EB030E22BF3A
:1024A000B61A754640EA0C005B084FEA3202B6EBFA
:1024B000020E75EB030E22BFB61A754640EA5C00A9
:1024C0005B084FEA3202B6EB020E75EB030E22BF39
:1024D000B61A754640EA9C005B084FEA3202B6EB3A
:1024E000020E75EB030E22BFB61A754640EADC00F9
:1024F00055EA060E18D04FEA051545EA16754FEA5B
:1025000006164FEAC30343EA52734FEAC2025FEA78
:102510001C1CC0D111F4801F0BD141EA00014FF007
:1025200000004FF0004CB6E711F4801F04BF0143D8
:102530000020B4F1FD0C88BFBCF5E06F3FF6AFAEF4
:10254000B5EB030C04BFB6EB020C5FEA500C50F184
:10255000000041EB045170BD0EF0004E4EEA113107
:1025600014EB5C04C2BFD4EB0C0541EA045170BD0E
:1025700041F480114FF0000E013C90E645EA060E52
:102580008DE60CEA135594EA0C0F08BF95EA0C0F80
:102590003FF43BAF94EA0C0F0AD150EA01347FF4C8
:1025A00034AF95EA0C0F7FF425AF104619462CE79F
:1025B00095EA0C0F06D152EA03353FF4FDAE104602
:1025C000194622E750EA410618BF52EA43067FF453
:1025D000C5AE50EA41047FF40DAF52EA43057FF4E3
:1025E000EBAE12E74FEA410212F5001215D211D5F7
:1025F0006FF47873B3EB625212D94FEAC12343F000
:10260000004343EA505311F0004F23FA02F018BF81
:10261000404270474FF00000704750EA013005D14A
:1026200011F0004008BF6FF0004070474FF000000D
:10263000704700BF4FEA4102B2F1E04324BFB3F557
:10264000001CDCF1FE5C0DD901F0004C4FEAC00229
:102650004CEA5070B2F1004F40EB830008BF20F00D
:102660000100704711F0804F21D113F13872BCBFC7
:1026700001F00040704741F480114FEA5252C2F11C
:102680001802C2F1200C10FA0CF320FA02F018BF65
:1026900040F001004FEAC1234FEAD32303FA0CFCB8
:1026A00040EA0C0023FA02F34FEA4303CCE77FEA47
:1026B000625307D150EA01331EBF4FF0FE4040F491
:1026C0004000704701F0004040F0FE4040F4000040
:1026D000704700BF80F0004002E000BF81F0004181
:1026E00042001FBF5FEA410392EA030F7FEA226CB8
:1026F0007FEA236C6AD04FEA1262D2EB1363C1BF48
:10270000D218414048404140B8BF5B42192B88BFB6
:10271000704710F0004F40F4000020F07F4018BFD9
:10272000404211F0004F41F4000121F07F4118BFF9
:10273000494292EA030F3FD0A2F1010241FA03FCA1
:1027400010EB0C00C3F1200301FA03F100F0004389
:1027500002D5494260EB4000B0F5000F13D3B0F151
:10276000807F06D340084FEA310102F10102FE2AC0
:1027700051D2B1F1004F40EBC25008BF20F0010030
:1027800040EA03007047490040EB000010F4000FDE
:10279000A2F10102EDD1B0FA80FCACF1080CB2EB71
:1027A0000C0200FA0CF0AABF00EBC25052421843D0
:1027B000BCBFD0401843704792F0000F81F4000175
:1027C00006BF80F400000132013BB5E74FEA410348
:1027D0007FEA226C18BF7FEA236C21D092EA030FB4
:1027E00004D092F0000F08BF0846704790EA010F2E
:1027F0001CBF0020704712F07F4F04D1400028BF5B
:1028000040F00040704712F100723CBF00F500003C
:10281000704700F0004343F0FE4040F40000704772
:102820007FEA226216BF08467FEA2363014642021E
:1028300006BF5FEA412390EA010F40F48000704731
:102840004FF0000304E000BF10F0004348BF4042D7
:102850005FEA000C08BF704743F0964301464FF013
:1028600000001CE050EA010208BF70474FF000036F
:102870000AE000BF50EA010208BF704711F00043B0
:1028800002D5404261EB41015FEA010C02BF844680
:102890000146002043F0B64308BFA3F18053A3F5DF
:1028A0000003BCFA8CF2083AA3EBC25310DB01FA26
:1028B00002FC634400FA02FCC2F12002BCF1004FAA
:1028C00020FA02F243EB020008BF20F0010070473B
:1028D00002F1200201FA02FCC2F1200250EA4C008F
:1028E00021FA02F243EB020008BF20EADC707047D5
:1028F0004FF0FF0C1CEAD0521EBF1CEAD15392EAE3
:102900000C0F93EA0C0F6FD01A4480EA010C4002BE
:1029100018BF5FEA41211ED04FF0006343EA501018
:1029200043EA5111A0FB01310CF00040B1F5000F5A
:102930003EBF490041EAD3715B0040EA010062F109
:102940007F02FD2A1DD8B3F1004F40EBC25008BFF3
:1029500020F00100704790F0000F0CF0004C08BF11
:1029600049024CEA502040EA51207F3AC2BFD2F1DE
:10297000FF0340EAC250704740F400004FF00003EC
:10298000013A5DDC12F1190FDCBF00F00040704726
:10299000C2F10002410021FA02F1C2F1200200FA64
:1029A00002FC5FEA310040F1000053EA4C0308BF2B
:1029B00020EADC70704792F0000F00F0004C02BF7C
:1029C000400010F4000F013AF9D040EA0C0093F0F7
:1029D000000F01F0004C02BF490011F4000F013B51
:1029E000F9D041EA0C018FE70CEAD15392EA0C0FBF
:1029F00018BF93EA0C0F0AD030F0004C18BF31F02A
:102A0000004CD8D180EA010000F00040704790F0FF
:102A1000000F17BF90F0004F084691F0000F91F0A3
:102A2000004F14D092EA0C0F01D142020FD193EA69
:102A30000C0F03D14B0218BF084608D180EA0100F1
:102A400000F0004040F0FE4040F40000704740F0CD
:102A5000FE4040F4400070474FF0FF0C1CEAD0529B
:102A60001EBF1CEAD15392EA0C0F93EA0C0F69D0F7
:102A7000A2EB030280EA010C49024FEA402037D062
:102A80004FF0805343EA111143EA10130CF0004059
:102A90008B4238BF5B0042F17D024FF4000C8B4249
:102AA00024BF5B1A40EA0C00B3EB510F24BFA3EB29
:102AB000510340EA5C00B3EB910F24BFA3EB9103F9
:102AC00040EA9C00B3EBD10F24BFA3EBD10340EA53
:102AD000DC001B0118BF5FEA1C1CE0D1FD2A3FF699
:102AE00050AF8B4240EBC25008BF20F0010070474E
:102AF0000CF0004C4CEA50207F32C2BFD2F1FF03F1
:102B000040EAC250704740F400004FF00003013A21
:102B100037E792F0000F00F0004C02BF400010F4C5
:102B2000000F013AF9D040EA0C0093F0000F01F0D9
:102B3000004C02BF490011F4000F013BF9D041EAFB
:102B40000C0195E70CEAD15392EA0C0F08D142022E
:102B50007FF47DAF93EA0C0F7FF470AF084676E701
:102B600093EA0C0F04D14B023FF44CAF08466EE7DA
:102B700030F0004C18BF31F0004CCAD130F00042A8
:102B80007FF45CAF31F000437FF43CAF5FE700BF00
:102B90004FEA4002B2F1FE4F0FD34FF09E03B3EB6A
:102BA00012620DD94FEA002343F0004310F0004FAA
:102BB00023FA02F018BF404270474FF00000704700
:102BC00012F1610F01D1420205D110F0004008BF9F
:102BD0006FF0004070474FF0000070470D0A20551D
:102BE0005341525431207072696E742041445F76B3
:102BF000616C7565202D2D2D2D2D2D2D2D2D2D2D1F
:102C00002D2D2D2D2D2D2D2D2D2D2D2D2D2D2D2001
:102C10000D0000006164635F72656164203D2025E2
:102C2000642E25303464253034640D0A0000000021
:102C300025730000737464696F2E633A20696E63B4
:102C40007265617365204D41585F535452494E4738
:082C50005F53495A450A0D00CB
:102C5800000000000000000001000000000000006B
:102C6800000000000000000000000000000000005C
:102C7800000000000000000000000000000000004C
:102C8800000000000000000000000000000000003C
:102C9800000000000000000000000000000000002C
:103078000000000000000000000000200000000028
:1030880001020304010203040607080902040608F2
:0400000508000000EF
:00000001FF
